{
  "contractName": "GoodTimesContract",
  "abi": [
    {
      "inputs": [
        {
          "internalType": "uint8",
          "name": "threshold",
          "type": "uint8"
        }
      ],
      "stateMutability": "nonpayable",
      "type": "constructor"
    },
    {
      "anonymous": false,
      "inputs": [
        {
          "indexed": true,
          "internalType": "address",
          "name": "caller",
          "type": "address"
        },
        {
          "indexed": true,
          "internalType": "uint256",
          "name": "gtcId",
          "type": "uint256"
        }
      ],
      "name": "ConfirmationAdded",
      "type": "event"
    },
    {
      "anonymous": false,
      "inputs": [
        {
          "indexed": false,
          "internalType": "address",
          "name": "caller",
          "type": "address"
        },
        {
          "indexed": false,
          "internalType": "string",
          "name": "message",
          "type": "string"
        },
        {
          "indexed": false,
          "internalType": "uint256",
          "name": "required",
          "type": "uint256"
        }
      ],
      "name": "FailedWithdrawal",
      "type": "event"
    },
    {
      "anonymous": false,
      "inputs": [
        {
          "indexed": true,
          "internalType": "uint256",
          "name": "gtcId",
          "type": "uint256"
        },
        {
          "indexed": true,
          "internalType": "address",
          "name": "creator",
          "type": "address"
        }
      ],
      "name": "GtcCreated",
      "type": "event"
    },
    {
      "anonymous": false,
      "inputs": [
        {
          "indexed": false,
          "internalType": "address",
          "name": "newAddress",
          "type": "address"
        }
      ],
      "name": "LetsGoChanged",
      "type": "event"
    },
    {
      "anonymous": false,
      "inputs": [
        {
          "indexed": true,
          "internalType": "address",
          "name": "previousOwner",
          "type": "address"
        },
        {
          "indexed": true,
          "internalType": "address",
          "name": "newOwner",
          "type": "address"
        }
      ],
      "name": "OwnershipTransferred",
      "type": "event"
    },
    {
      "anonymous": false,
      "inputs": [
        {
          "indexed": false,
          "internalType": "address",
          "name": "caller",
          "type": "address"
        },
        {
          "indexed": true,
          "internalType": "uint256",
          "name": "gtcId",
          "type": "uint256"
        }
      ],
      "name": "RevokeConfirmation",
      "type": "event"
    },
    {
      "anonymous": false,
      "inputs": [
        {
          "indexed": false,
          "internalType": "uint256",
          "name": "gtcId",
          "type": "uint256"
        },
        {
          "indexed": false,
          "internalType": "address",
          "name": "caller",
          "type": "address"
        }
      ],
      "name": "WithdrawalSuccess",
      "type": "event"
    },
    {
      "inputs": [
        {
          "internalType": "uint256",
          "name": "",
          "type": "uint256"
        }
      ],
      "name": "goodTimesRegistry",
      "outputs": [
        {
          "internalType": "uint256",
          "name": "id",
          "type": "uint256"
        },
        {
          "internalType": "string",
          "name": "name",
          "type": "string"
        },
        {
          "internalType": "uint256",
          "name": "durationInDays",
          "type": "uint256"
        },
        {
          "internalType": "uint256",
          "name": "budget",
          "type": "uint256"
        },
        {
          "internalType": "uint256",
          "name": "confirmations",
          "type": "uint256"
        },
        {
          "internalType": "bool",
          "name": "closed",
          "type": "bool"
        },
        {
          "internalType": "uint256",
          "name": "createdAt",
          "type": "uint256"
        }
      ],
      "stateMutability": "view",
      "type": "function",
      "constant": true
    },
    {
      "inputs": [],
      "name": "owner",
      "outputs": [
        {
          "internalType": "address",
          "name": "",
          "type": "address"
        }
      ],
      "stateMutability": "view",
      "type": "function",
      "constant": true
    },
    {
      "inputs": [],
      "name": "renounceOwnership",
      "outputs": [],
      "stateMutability": "nonpayable",
      "type": "function"
    },
    {
      "inputs": [
        {
          "internalType": "address",
          "name": "newOwner",
          "type": "address"
        }
      ],
      "name": "transferOwnership",
      "outputs": [],
      "stateMutability": "nonpayable",
      "type": "function"
    },
    {
      "inputs": [],
      "name": "withdrawThreshold",
      "outputs": [
        {
          "internalType": "uint8",
          "name": "",
          "type": "uint8"
        }
      ],
      "stateMutability": "view",
      "type": "function",
      "constant": true
    },
    {
      "inputs": [
        {
          "internalType": "uint256",
          "name": "id",
          "type": "uint256"
        }
      ],
      "name": "pledgeFunds",
      "outputs": [],
      "stateMutability": "payable",
      "type": "function",
      "payable": true
    },
    {
      "inputs": [
        {
          "internalType": "string",
          "name": "name",
          "type": "string"
        },
        {
          "internalType": "uint256",
          "name": "duration",
          "type": "uint256"
        }
      ],
      "name": "createGoodTimes",
      "outputs": [
        {
          "internalType": "uint256",
          "name": "_id",
          "type": "uint256"
        }
      ],
      "stateMutability": "payable",
      "type": "function",
      "payable": true
    },
    {
      "inputs": [
        {
          "internalType": "uint256",
          "name": "_id",
          "type": "uint256"
        }
      ],
      "name": "checkFundsPledgedByUser",
      "outputs": [
        {
          "internalType": "uint256",
          "name": "result",
          "type": "uint256"
        }
      ],
      "stateMutability": "view",
      "type": "function",
      "constant": true
    },
    {
      "inputs": [
        {
          "internalType": "uint256",
          "name": "_id",
          "type": "uint256"
        }
      ],
      "name": "checkIfUserIsEnrolled",
      "outputs": [
        {
          "internalType": "bool",
          "name": "",
          "type": "bool"
        }
      ],
      "stateMutability": "view",
      "type": "function",
      "constant": true
    },
    {
      "inputs": [
        {
          "internalType": "uint256",
          "name": "id",
          "type": "uint256"
        }
      ],
      "name": "sendFundsToBookingContract",
      "outputs": [],
      "stateMutability": "nonpayable",
      "type": "function"
    },
    {
      "inputs": [
        {
          "internalType": "uint256",
          "name": "id",
          "type": "uint256"
        }
      ],
      "name": "confirmWithdrawal",
      "outputs": [],
      "stateMutability": "nonpayable",
      "type": "function"
    },
    {
      "inputs": [
        {
          "internalType": "uint256",
          "name": "id",
          "type": "uint256"
        }
      ],
      "name": "revokeConfirmation",
      "outputs": [],
      "stateMutability": "nonpayable",
      "type": "function"
    },
    {
      "inputs": [],
      "name": "getUsersGTCs",
      "outputs": [
        {
          "internalType": "uint256[]",
          "name": "",
          "type": "uint256[]"
        }
      ],
      "stateMutability": "view",
      "type": "function",
      "constant": true
    },
    {
      "inputs": [
        {
          "internalType": "address",
          "name": "destination",
          "type": "address"
        }
      ],
      "name": "updateLetsGoAddress",
      "outputs": [],
      "stateMutability": "nonpayable",
      "type": "function"
    }
  ],
  "bytecode": "0x60806040526000600260006101000a81548173ffffffffffffffffffffffffffffffffffffffff021916908373ffffffffffffffffffffffffffffffffffffffff1602179055503480156200005357600080fd5b50604051620029f1380380620029f183398181016040528101906200007991906200034e565b620000996200008d6200018f60201b60201c565b6200019760201b60201c565b60008160ff16118015620000b0575060648160ff16105b620000f2576040517f08c379a0000000000000000000000000000000000000000000000000000000008152600401620000e99062000407565b60405180910390fd5b80600860006101000a81548160ff021916908360ff1602179055506000600181905550600060046000808152602001908152602001600020905060008160000181905550604051806020016040528060008152508160010190805190602001906200015f9291906200025b565b506000816003018190555060018160050160006101000a81548160ff02191690831515021790555050506200048e565b600033905090565b60008060009054906101000a900473ffffffffffffffffffffffffffffffffffffffff169050816000806101000a81548173ffffffffffffffffffffffffffffffffffffffff021916908373ffffffffffffffffffffffffffffffffffffffff1602179055508173ffffffffffffffffffffffffffffffffffffffff168173ffffffffffffffffffffffffffffffffffffffff167f8be0079c531659141344cd1fd0a4f28419497f9722a3daafe3b4186f6b6457e060405160405180910390a35050565b828054620002699062000458565b90600052602060002090601f0160209004810192826200028d5760008555620002d9565b82601f10620002a857805160ff1916838001178555620002d9565b82800160010185558215620002d9579182015b82811115620002d8578251825591602001919060010190620002bb565b5b509050620002e89190620002ec565b5090565b5b8082111562000307576000816000905550600101620002ed565b5090565b600080fd5b600060ff82169050919050565b620003288162000310565b81146200033457600080fd5b50565b60008151905062000348816200031d565b92915050565b6000602082840312156200036757620003666200030b565b5b6000620003778482850162000337565b91505092915050565b600082825260208201905092915050565b7f5468726573686f6c64206d757374206265206265747765656e203020616e642060008201527f3130300000000000000000000000000000000000000000000000000000000000602082015250565b6000620003ef60238362000380565b9150620003fc8262000391565b604082019050919050565b600060208201905081810360008301526200042281620003e0565b9050919050565b7f4e487b7100000000000000000000000000000000000000000000000000000000600052602260045260246000fd5b600060028204905060018216806200047157607f821691505b6020821081141562000488576200048762000429565b5b50919050565b612553806200049e6000396000f3fe6080604052600436106100dc5760003560e01c80638b2d77ed1161007f578063cab9518a11610059578063cab9518a14610291578063cf913996146102ba578063f2fde38b146102fd578063f3b3869014610326576100dc565b80638b2d77ed146102125780638da5cb5b1461023d578063bc47bc0e14610268576100dc565b80636f4d7ccb116100bb5780636f4d7ccb14610184578063715018a6146101b4578063760ee4c6146101cb57806383ada1cb146101f6576100dc565b806209de1c146100e157806320ea8d861461011e5780633eefcc8114610147575b600080fd5b3480156100ed57600080fd5b5061010860048036038101906101039190611821565b61034f565b604051610115919061185d565b60405180910390f35b34801561012a57600080fd5b5061014560048036038101906101409190611821565b6103a9565b005b34801561015357600080fd5b5061016e60048036038101906101699190611821565b6105fd565b60405161017b9190611893565b60405180910390f35b61019e600480360381019061019991906119f4565b61065a565b6040516101ab919061185d565b60405180910390f35b3480156101c057600080fd5b506101c961083e565b005b3480156101d757600080fd5b506101e06108c6565b6040516101ed9190611a6c565b60405180910390f35b610210600480360381019061020b9190611821565b6108d9565b005b34801561021e57600080fd5b50610227610b68565b6040516102349190611b45565b60405180910390f35b34801561024957600080fd5b50610252610bfd565b60405161025f9190611ba8565b60405180910390f35b34801561027457600080fd5b5061028f600480360381019061028a9190611bef565b610c26565b005b34801561029d57600080fd5b506102b860048036038101906102b39190611821565b610e34565b005b3480156102c657600080fd5b506102e160048036038101906102dc9190611821565b611181565b6040516102f49796959493929190611ca4565b60405180910390f35b34801561030957600080fd5b50610324600480360381019061031f9190611bef565b611258565b005b34801561033257600080fd5b5061034d60048036038101906103489190611821565b611350565b005b60006005600083815260200190815260200160002060003373ffffffffffffffffffffffffffffffffffffffff1673ffffffffffffffffffffffffffffffffffffffff168152602001908152602001600020549050919050565b8060006005600083815260200190815260200160002060003373ffffffffffffffffffffffffffffffffffffffff1673ffffffffffffffffffffffffffffffffffffffff16815260200190815260200160002054141561043e576040517f08c379a000000000000000000000000000000000000000000000000000000000815260040161043590611d8c565b60405180910390fd5b81600015156004600083815260200190815260200160002060050160009054906101000a900460ff161515146104a9576040517f08c379a00000000000000000000000000000000000000000000000000000000081526004016104a090611e1e565b60405180910390fd5b60006006600085815260200190815260200160002060003373ffffffffffffffffffffffffffffffffffffffff1673ffffffffffffffffffffffffffffffffffffffff16815260200190815260200160002054141561053d576040517f08c379a000000000000000000000000000000000000000000000000000000000815260040161053490611eb0565b60405180910390fd5b60006004600085815260200190815260200160002090506005600085815260200190815260200160002060003373ffffffffffffffffffffffffffffffffffffffff1673ffffffffffffffffffffffffffffffffffffffff168152602001908152602001600020548160040160008282546105b89190611eff565b92505081905550837ff0dca620e2e81f7841d07bcc105e1704fb01475b278a9d4c236e1c62945edd55336040516105ef9190611ba8565b60405180910390a250505050565b6000806005600084815260200190815260200160002060003373ffffffffffffffffffffffffffffffffffffffff1673ffffffffffffffffffffffffffffffffffffffff1681526020019081526020016000205414159050919050565b60008034141561069f576040517f08c379a000000000000000000000000000000000000000000000000000000000815260040161069690611fa5565b60405180910390fd5b600160008154809291906106b290611fc5565b9190505550600060046000600154815260200190815260200160002090506001549150818160000181905550838160010190805190602001906106f6929190611734565b50346000610704919061200e565b816003018190555082816002018190555042816006018190555034600560008360000154815260200190815260200160002060003373ffffffffffffffffffffffffffffffffffffffff1673ffffffffffffffffffffffffffffffffffffffff1681526020019081526020016000206000828254610782919061200e565b92505081905550600760003373ffffffffffffffffffffffffffffffffffffffff1673ffffffffffffffffffffffffffffffffffffffff168152602001908152602001600020816000015490806001815401808255809150506001900390600052602060002001600090919091909150553373ffffffffffffffffffffffffffffffffffffffff16827f7ee5bc4f78ce5e704e9aefc55c7cabb75960f4ced34648df49701496e2931aa860405160405180910390a35092915050565b610846611668565b73ffffffffffffffffffffffffffffffffffffffff16610864610bfd565b73ffffffffffffffffffffffffffffffffffffffff16146108ba576040517f08c379a00000000000000000000000000000000000000000000000000000000081526004016108b1906120b0565b60405180910390fd5b6108c46000611670565b565b600860009054906101000a900460ff1681565b8060015481111561091f576040517f08c379a00000000000000000000000000000000000000000000000000000000081526004016109169061211c565b60405180910390fd5b81600015156004600083815260200190815260200160002060050160009054906101000a900460ff1615151461098a576040517f08c379a000000000000000000000000000000000000000000000000000000000815260040161098190611e1e565b60405180910390fd5b8260006006600083815260200190815260200160002060003373ffffffffffffffffffffffffffffffffffffffff1673ffffffffffffffffffffffffffffffffffffffff1681526020019081526020016000205414610a1e576040517f08c379a0000000000000000000000000000000000000000000000000000000008152600401610a15906121ae565b60405180910390fd5b6000341415610a62576040517f08c379a0000000000000000000000000000000000000000000000000000000008152600401610a5990611fa5565b60405180910390fd5b600060046000868152602001908152602001600020905034816003016000828254610a8d919061200e565b92505081905550346005600087815260200190815260200160002060003373ffffffffffffffffffffffffffffffffffffffff1673ffffffffffffffffffffffffffffffffffffffff1681526020019081526020016000206000828254610af4919061200e565b92505081905550600760003373ffffffffffffffffffffffffffffffffffffffff1673ffffffffffffffffffffffffffffffffffffffff1681526020019081526020016000208590806001815401808255809150506001900390600052602060002001600090919091909150555050505050565b6060600760003373ffffffffffffffffffffffffffffffffffffffff1673ffffffffffffffffffffffffffffffffffffffff168152602001908152602001600020805480602002602001604051908101604052809291908181526020018280548015610bf357602002820191906000526020600020905b815481526020019060010190808311610bdf575b5050505050905090565b60008060009054906101000a900473ffffffffffffffffffffffffffffffffffffffff16905090565b610c2e611668565b73ffffffffffffffffffffffffffffffffffffffff16610c4c610bfd565b73ffffffffffffffffffffffffffffffffffffffff1614610ca2576040517f08c379a0000000000000000000000000000000000000000000000000000000008152600401610c99906120b0565b60405180910390fd5b80600260006101000a81548173ffffffffffffffffffffffffffffffffffffffff021916908373ffffffffffffffffffffffffffffffffffffffff16021790555080600360006101000a81548173ffffffffffffffffffffffffffffffffffffffff021916908373ffffffffffffffffffffffffffffffffffffffff160217905550602a600360009054906101000a900473ffffffffffffffffffffffffffffffffffffffff1673ffffffffffffffffffffffffffffffffffffffff1663302a72936040518163ffffffff1660e01b8152600401602060405180830381865afa158015610d93573d6000803e3d6000fd5b505050506040513d601f19601f82011682018060405250810190610db791906121fa565b60ff1614610dfa576040517f08c379a0000000000000000000000000000000000000000000000000000000008152600401610df190612299565b60405180910390fd5b7f1ed3e04b20cd8def4c7f975025e4503d008180862426978c5fbd61e086278f5a81604051610e299190611ba8565b60405180910390a150565b80600154811115610e7a576040517f08c379a0000000000000000000000000000000000000000000000000000000008152600401610e719061211c565b60405180910390fd5b8160006005600083815260200190815260200160002060003373ffffffffffffffffffffffffffffffffffffffff1673ffffffffffffffffffffffffffffffffffffffff168152602001908152602001600020541415610f0f576040517f08c379a0000000000000000000000000000000000000000000000000000000008152600401610f0690611d8c565b60405180910390fd5b82600015156004600083815260200190815260200160002060050160009054906101000a900460ff16151514610f7a576040517f08c379a0000000000000000000000000000000000000000000000000000000008152600401610f7190611e1e565b60405180910390fd5b600060046000868152602001908152602001600020905060018160050160006101000a81548160ff0219169083151502179055506064600860009054906101000a900460ff1660ff168260030154610fd291906122b9565b610fdc9190612342565b816004015410156110a95760006040518060600160405280602e81526020016124f0602e913990507f62dbc3526e1e9abc5e72e313c3de64493109eaa56cd5793a95bb1b7d632d20a833826064600860009054906101000a900460ff1660ff16866003015461104b91906122b9565b6110559190612342565b60405161106493929190612373565b60405180910390a1806040517f08c379a00000000000000000000000000000000000000000000000000000000081526004016110a091906123b1565b60405180910390fd5b6000600260009054906101000a900473ffffffffffffffffffffffffffffffffffffffff1690508073ffffffffffffffffffffffffffffffffffffffff16631c22124c8360030154886040518363ffffffff1660e01b815260040161110e919061185d565b6000604051808303818588803b15801561112757600080fd5b505af115801561113b573d6000803e3d6000fd5b50505050507f6e187cf5040584b65551f45111ccb15860f17f91ca2655843a2bf482dc89848886336040516111719291906123d3565b60405180910390a1505050505050565b60046020528060005260406000206000915090508060000154908060010180546111aa9061242b565b80601f01602080910402602001604051908101604052809291908181526020018280546111d69061242b565b80156112235780601f106111f857610100808354040283529160200191611223565b820191906000526020600020905b81548152906001019060200180831161120657829003601f168201915b5050505050908060020154908060030154908060040154908060050160009054906101000a900460ff16908060060154905087565b611260611668565b73ffffffffffffffffffffffffffffffffffffffff1661127e610bfd565b73ffffffffffffffffffffffffffffffffffffffff16146112d4576040517f08c379a00000000000000000000000000000000000000000000000000000000081526004016112cb906120b0565b60405180910390fd5b600073ffffffffffffffffffffffffffffffffffffffff168173ffffffffffffffffffffffffffffffffffffffff161415611344576040517f08c379a000000000000000000000000000000000000000000000000000000000815260040161133b906124cf565b60405180910390fd5b61134d81611670565b50565b8060006005600083815260200190815260200160002060003373ffffffffffffffffffffffffffffffffffffffff1673ffffffffffffffffffffffffffffffffffffffff1681526020019081526020016000205414156113e5576040517f08c379a00000000000000000000000000000000000000000000000000000000081526004016113dc90611d8c565b60405180910390fd5b81600015156004600083815260200190815260200160002060050160009054906101000a900460ff16151514611450576040517f08c379a000000000000000000000000000000000000000000000000000000000815260040161144790611e1e565b60405180910390fd5b8260006006600083815260200190815260200160002060003373ffffffffffffffffffffffffffffffffffffffff1673ffffffffffffffffffffffffffffffffffffffff16815260200190815260200160002054146114e4576040517f08c379a00000000000000000000000000000000000000000000000000000000081526004016114db906121ae565b60405180910390fd5b60006004600086815260200190815260200160002090506005600086815260200190815260200160002060003373ffffffffffffffffffffffffffffffffffffffff1673ffffffffffffffffffffffffffffffffffffffff1681526020019081526020016000205481600401600082825461155f919061200e565b925050819055506005600086815260200190815260200160002060003373ffffffffffffffffffffffffffffffffffffffff1673ffffffffffffffffffffffffffffffffffffffff168152602001908152602001600020546006600087815260200190815260200160002060003373ffffffffffffffffffffffffffffffffffffffff1673ffffffffffffffffffffffffffffffffffffffff1681526020019081526020016000206000828254611616919061200e565b92505081905550843373ffffffffffffffffffffffffffffffffffffffff167f806b4bc3c3dfe305cf9ad8c8e7a711dd39535ee7fb2de335252aca5c3e5c323960405160405180910390a35050505050565b600033905090565b60008060009054906101000a900473ffffffffffffffffffffffffffffffffffffffff169050816000806101000a81548173ffffffffffffffffffffffffffffffffffffffff021916908373ffffffffffffffffffffffffffffffffffffffff1602179055508173ffffffffffffffffffffffffffffffffffffffff168173ffffffffffffffffffffffffffffffffffffffff167f8be0079c531659141344cd1fd0a4f28419497f9722a3daafe3b4186f6b6457e060405160405180910390a35050565b8280546117409061242b565b90600052602060002090601f01602090048101928261176257600085556117a9565b82601f1061177b57805160ff19168380011785556117a9565b828001600101855582156117a9579182015b828111156117a857825182559160200191906001019061178d565b5b5090506117b691906117ba565b5090565b5b808211156117d35760008160009055506001016117bb565b5090565b6000604051905090565b600080fd5b600080fd5b6000819050919050565b6117fe816117eb565b811461180957600080fd5b50565b60008135905061181b816117f5565b92915050565b600060208284031215611837576118366117e1565b5b60006118458482850161180c565b91505092915050565b611857816117eb565b82525050565b6000602082019050611872600083018461184e565b92915050565b60008115159050919050565b61188d81611878565b82525050565b60006020820190506118a86000830184611884565b92915050565b600080fd5b600080fd5b6000601f19601f8301169050919050565b7f4e487b7100000000000000000000000000000000000000000000000000000000600052604160045260246000fd5b611901826118b8565b810181811067ffffffffffffffff821117156119205761191f6118c9565b5b80604052505050565b60006119336117d7565b905061193f82826118f8565b919050565b600067ffffffffffffffff82111561195f5761195e6118c9565b5b611968826118b8565b9050602081019050919050565b82818337600083830152505050565b600061199761199284611944565b611929565b9050828152602081018484840111156119b3576119b26118b3565b5b6119be848285611975565b509392505050565b600082601f8301126119db576119da6118ae565b5b81356119eb848260208601611984565b91505092915050565b60008060408385031215611a0b57611a0a6117e1565b5b600083013567ffffffffffffffff811115611a2957611a286117e6565b5b611a35858286016119c6565b9250506020611a468582860161180c565b9150509250929050565b600060ff82169050919050565b611a6681611a50565b82525050565b6000602082019050611a816000830184611a5d565b92915050565b600081519050919050565b600082825260208201905092915050565b6000819050602082019050919050565b611abc816117eb565b82525050565b6000611ace8383611ab3565b60208301905092915050565b6000602082019050919050565b6000611af282611a87565b611afc8185611a92565b9350611b0783611aa3565b8060005b83811015611b38578151611b1f8882611ac2565b9750611b2a83611ada565b925050600181019050611b0b565b5085935050505092915050565b60006020820190508181036000830152611b5f8184611ae7565b905092915050565b600073ffffffffffffffffffffffffffffffffffffffff82169050919050565b6000611b9282611b67565b9050919050565b611ba281611b87565b82525050565b6000602082019050611bbd6000830184611b99565b92915050565b611bcc81611b87565b8114611bd757600080fd5b50565b600081359050611be981611bc3565b92915050565b600060208284031215611c0557611c046117e1565b5b6000611c1384828501611bda565b91505092915050565b600081519050919050565b600082825260208201905092915050565b60005b83811015611c56578082015181840152602081019050611c3b565b83811115611c65576000848401525b50505050565b6000611c7682611c1c565b611c808185611c27565b9350611c90818560208601611c38565b611c99816118b8565b840191505092915050565b600060e082019050611cb9600083018a61184e565b8181036020830152611ccb8189611c6b565b9050611cda604083018861184e565b611ce7606083018761184e565b611cf4608083018661184e565b611d0160a0830185611884565b611d0e60c083018461184e565b98975050505050505050565b7f596f7520617265206e6f742070617274696369706174696e6720696e2074686560008201527f2073706563696669656420676f6f642074696d65732100000000000000000000602082015250565b6000611d76603683611c27565b9150611d8182611d1a565b604082019050919050565b60006020820190508181036000830152611da581611d69565b9050919050565b7f546869732047544320686173206265656e20636c6f7365642c2066756e64732760008201527f7665206265656e207472616e7366657265642100000000000000000000000000602082015250565b6000611e08603383611c27565b9150611e1382611dac565b604082019050919050565b60006020820190508181036000830152611e3781611dfb565b9050919050565b7f596f752068617665206e6f74206d616465206120636f6e6669726d6174696f6e60008201527f2021000000000000000000000000000000000000000000000000000000000000602082015250565b6000611e9a602283611c27565b9150611ea582611e3e565b604082019050919050565b60006020820190508181036000830152611ec981611e8d565b9050919050565b7f4e487b7100000000000000000000000000000000000000000000000000000000600052601160045260246000fd5b6000611f0a826117eb565b9150611f15836117eb565b925082821015611f2857611f27611ed0565b5b828203905092915050565b7f596f75206861766520746f2073656e6420736f6d652045544820746f2063726560008201527f617465206120476f6f6454696d65203a29000000000000000000000000000000602082015250565b6000611f8f603183611c27565b9150611f9a82611f33565b604082019050919050565b60006020820190508181036000830152611fbe81611f82565b9050919050565b6000611fd0826117eb565b91507fffffffffffffffffffffffffffffffffffffffffffffffffffffffffffffffff82141561200357612002611ed0565b5b600182019050919050565b6000612019826117eb565b9150612024836117eb565b9250827fffffffffffffffffffffffffffffffffffffffffffffffffffffffffffffffff0382111561205957612058611ed0565b5b828201905092915050565b7f4f776e61626c653a2063616c6c6572206973206e6f7420746865206f776e6572600082015250565b600061209a602083611c27565b91506120a582612064565b602082019050919050565b600060208201905081810360008301526120c98161208d565b9050919050565b7f47544320646f6573206e6f742065786973740000000000000000000000000000600082015250565b6000612106601283611c27565b9150612111826120d0565b602082019050919050565b60006020820190508181036000830152612135816120f9565b9050919050565b7f596f75206861766520616c726561647920436f6e6669726d656420776974686460008201527f726177616c202100000000000000000000000000000000000000000000000000602082015250565b6000612198602783611c27565b91506121a38261213c565b604082019050919050565b600060208201905081810360008301526121c78161218b565b9050919050565b6121d781611a50565b81146121e257600080fd5b50565b6000815190506121f4816121ce565b92915050565b6000602082840312156122105761220f6117e1565b5b600061221e848285016121e5565b91505092915050565b7f496e76616c696420616464726573732c2064657374696e6174696f6e206d757360008201527f74206265204c657473476f20636f6e7472616374000000000000000000000000602082015250565b6000612283603483611c27565b915061228e82612227565b604082019050919050565b600060208201905081810360008301526122b281612276565b9050919050565b60006122c4826117eb565b91506122cf836117eb565b9250817fffffffffffffffffffffffffffffffffffffffffffffffffffffffffffffffff048311821515161561230857612307611ed0565b5b828202905092915050565b7f4e487b7100000000000000000000000000000000000000000000000000000000600052601260045260246000fd5b600061234d826117eb565b9150612358836117eb565b92508261236857612367612313565b5b828204905092915050565b60006060820190506123886000830186611b99565b818103602083015261239a8185611c6b565b90506123a9604083018461184e565b949350505050565b600060208201905081810360008301526123cb8184611c6b565b905092915050565b60006040820190506123e8600083018561184e565b6123f56020830184611b99565b9392505050565b7f4e487b7100000000000000000000000000000000000000000000000000000000600052602260045260246000fd5b6000600282049050600182168061244357607f821691505b60208210811415612457576124566123fc565b5b50919050565b7f4f776e61626c653a206e6577206f776e657220697320746865207a65726f206160008201527f6464726573730000000000000000000000000000000000000000000000000000602082015250565b60006124b9602683611c27565b91506124c48261245d565b604082019050919050565b600060208201905081810360008301526124e8816124ac565b905091905056fe4e6f7420656e6f75676820636f6e6669726d6174696f6e7320746f2073656e64207472616e73616374696f6e2021a2646970667358221220ca15efa14b50e5ab39b927e277df36d57d3d1f9c685a14f9a4e253baa8618fa564736f6c634300080a0033",
  "immutableReferences": {},
  "source": "// SPDX-License-Identifier: MIT\npragma solidity ^0.8.0;\n\nimport \"@openzeppelin/contracts/access/Ownable.sol\";\nimport \"./LetsGo.sol\";\n\n/// @title GoodTimes Contract\n/// @notice Contract manages the creation of GoodTimes and interaction with them\n/// @author Jane G Nov 2021\ncontract GoodTimesContract is Ownable {\n    \n\tstruct GoodTime {\n        uint256 id;\n        string name;\n        uint256 durationInDays;\n        uint256 budget;\n        /// @dev confirmations in wei, needed to transfer the GoodTime to LetsGo\n        uint256 confirmations;\n        bool closed;\n\t\tuint256 createdAt;\n    }\n\n    uint256 internal goodTimesCounter;\n\n    address internal _letsGoAddress = address(0);\n    LetsGoInterface internal oracle;\n\n\t/// @notice registry of created GoodTime objects\n    mapping(uint256 => GoodTime) public goodTimesRegistry;\n\n\t/// @notice registry of funds pledged by Each user for each GoodTime object\n\tmapping(uint256 => mapping(address => uint256)) internal fundsPledgedByUser;\n\n\t/// @notice registry of confirmations by user for each GoodTime\n\t/// @dev the uint256 value of the scond mapping represents the funds pledged by the user who has called confirm withdrawal\n\tmapping(uint256 => mapping(address => uint256)) internal confirmationsByUser;\n    \n\t/// @notice registry of GoodTimes that a user is particiapting in\n    mapping(address => uint256[]) goodTimesByUser;\n\t\n    /// @notice Confirmation threshold as percentage of budget. Can be from 0 - 100.\n    uint8 public withdrawThreshold;\n\n    modifier gtcExists(uint256 _id) {\n        require(_id <= goodTimesCounter, \"GTC does not exist\");\n        _;\n    }\n\n\t/// @dev Checks if the sender of message is participating in the goodTime\n\t/// @param _id an id of existing GoodTime \n    modifier onlyParticipants(uint256 _id) {\n        require(\n            fundsPledgedByUser[_id][msg.sender] != 0,\n            \"You are not participating in the specified good times!\"\n        );\n        _;\n    }\n\n\t/// @param _id an id of existing GoodTime \n    modifier gtcIsOpened(uint256 _id) {\n        require(\n            goodTimesRegistry[_id].closed == false,\n            \"This GTC has been closed, funds've been transfered!\"\n        );\n        _;\n    }\n\n\t/// @notice Throws exception if msg.sender has previously confirmed withdrawal for the GoodTime with the specified id\n\t/// @param _id an id of existing GoodTime\n\tmodifier rejectIfUserConfirmedWithdrawal(uint256 _id) {\n        require(confirmationsByUser[_id][msg.sender] == 0, \"You have already Confirmed withdrawal !\");\n        _;\n    }\n\n\tevent GtcCreated(uint256 indexed gtcId, address indexed creator);\n    event FailedWithdrawal(address caller, string message, uint256 required);\n    event WithdrawalSuccess(uint256 gtcId, address caller);\n    event LetsGoChanged(address newAddress);\n    event ConfirmationAdded(address indexed caller, uint256 indexed gtcId);\n\tevent RevokeConfirmation(address caller, uint256 indexed gtcId);\n\n    \n\t/******************************************************************\n       Functions\n    ******************************************************************/\n\n\t/// @dev GoodTimes constructor, sets withdrawThresold.\n\t/// @param threshold represents withdrawal thershold i.e. how much confirmations will be needed to send funds to LetsGo contract\n    constructor(uint8 threshold) Ownable() {\n        require(threshold > 0 && threshold < 100, \"Threshold must be between 0 and 100\");\n\t\twithdrawThreshold = threshold;\n\t\tgoodTimesCounter = 0;\n        GoodTime storage initial = goodTimesRegistry[0];\n        initial.id = 0;\n        initial.name = \"\";\n        initial.budget = 0;\n\t\tinitial.closed = true;\n    }\n\n\t/// @notice Attributes funds to the GoodTime and adds the user as a participant\n\t/// @param id The id of the GoodTime\n    function pledgeFunds(uint256 id) public payable \n\tgtcExists(id) \n\tgtcIsOpened(id) \n\trejectIfUserConfirmedWithdrawal(id)\n\t{\n\t\trequire(msg.value != 0, \"You have to send some ETH to create a GoodTime :)\");\n        GoodTime storage target = goodTimesRegistry[id];\n        target.budget += msg.value;\n        fundsPledgedByUser[id][msg.sender] += msg.value;\n\n        goodTimesByUser[msg.sender].push(id);\n    }\n\n\t/// @notice Creates a new GoodTime with inital budget of the value send in the transaciton\n\t/// @param name The title of the GoodTime\n\t/// @param duration Duration in days\n\t/// @return _id returns the id of the created GoodTime\n    function createGoodTimes(string memory name, uint256 duration)\n        public\n        payable\n        returns (uint256 _id)\n    {\n        require(msg.value != 0, \"You have to send some ETH to create a GoodTime :)\");\n\t\tgoodTimesCounter++;\n\t\t// _id = goodTimesCounter;\n        GoodTime storage newGoodTime = goodTimesRegistry[goodTimesCounter];\n        newGoodTime.id = _id = goodTimesCounter;\n        newGoodTime.name = name;\n        newGoodTime.budget = 0 + msg.value;\n        newGoodTime.durationInDays = duration;\n\t\tnewGoodTime.createdAt = block.timestamp;\n\t\t\n\t\tfundsPledgedByUser[newGoodTime.id][msg.sender] += msg.value;\n        goodTimesByUser[msg.sender].push(newGoodTime.id);\n        \n\t\temit GtcCreated(_id, msg.sender);\n    }\n\n\t/// @notice Gets the value of funds the user has pledged to a specific GoodTime\n\t/// @param _id The id of the GoodTime\n\t/// @return result value pledged by the user in wei\n    function checkFundsPledgedByUser(uint256 _id) public view returns (uint256 result)\n    {\n        result = fundsPledgedByUser[_id][msg.sender];\n    }\n\n\t/// @notice Checks if user has pledged any funds to the specified GoodTime\n\t/// @param _id The id of the GoodTime\n\t/// @return true if the user is participant of the GoodTime else false\n    function checkIfUserIsEnrolled(uint256 _id) public view returns (bool) {\n        return fundsPledgedByUser[_id][msg.sender] != 0;\n    }\n\t\n\t/// @notice sends the budget of the specified GoodTime to the LetsGo contract. GoodTime needs to have enough confirmations for this to pass\n\t/// @param id The id of the GoodTime\n    function sendFundsToBookingContract(uint256 id)\n        public\n\t\tgtcExists(id)\n        onlyParticipants(id)\n\t\tgtcIsOpened(id)\n    {\n        GoodTime storage gtc = goodTimesRegistry[id];\n\t\tgtc.closed = true;\n        if (gtc.confirmations < (gtc.budget * withdrawThreshold) / 100) \n\t\t{\n            //string err = string(abi.encodePacked(\"Not enough confirmations to send transaction! Required\", b))\n            string\n                memory errorMessage = \"Not enough confirmations to send transaction !\";\n            emit FailedWithdrawal(\n                msg.sender,\n                errorMessage,\n                (gtc.budget * withdrawThreshold) / 100\n            );\n            revert(errorMessage);\n        }\n        // (bool success, ) = _letsGoAddress.call{value: gtc.budget}(abi.encodeWithSignature(\"receiveFundsFromGtc(uint256)\", gtc.id));\n        //   require(success, \"Failed to send funds to LetsGo contract\");\n\t\tLetsGo destination = LetsGo(_letsGoAddress);\n        destination.receiveFundsFromGtc{value: gtc.budget}(id);        \n        emit WithdrawalSuccess(id, msg.sender);\n    }\n\n\t/// @notice Adds the caller's pledged funds to the confirmation param of the GoodTime.\n\t/// @param id The id of the GoodTime\n    function confirmWithdrawal(uint256 id)\n        public\n        onlyParticipants(id)\n\t\tgtcIsOpened(id)\n\t\trejectIfUserConfirmedWithdrawal(id)\n    {\n\t\tGoodTime storage gtc = goodTimesRegistry[id];\n\t\tgtc.confirmations += fundsPledgedByUser[id][msg.sender];\n\t\tconfirmationsByUser[id][msg.sender] += fundsPledgedByUser[id][msg.sender];\n        emit ConfirmationAdded(msg.sender, id);\n    }\n\n\t/// @notice Remove the caller's pledged funds from the confirmation param of the GoodTime.\n\t/// @param id The id of the GoodTime\n\tfunction revokeConfirmation(uint id) public onlyParticipants(id) gtcIsOpened(id)\n\t{\n\t\trequire(confirmationsByUser[id][msg.sender] != 0, \"You have not made a confirmation !\");\n\t\tGoodTime storage gtc = goodTimesRegistry[id];\n\t\tgtc.confirmations -= fundsPledgedByUser[id][msg.sender];\n\t\temit RevokeConfirmation(msg.sender, id);\n\t}\n\n\t/// @notice Gets the ids of all the GoodTimes where the caller is participating\n\t/// @return array of uints which reprsent ids of GoodTimes\n    function getUsersGTCs() public view returns (uint256[] memory) {\n        return goodTimesByUser[msg.sender];\n    }\n\n\t/// @dev updates the address and the LetsGo contract kept in oracle variable\n\t/// @param destination address of the new LetsGo contract\n    function updateLetsGoAddress(address destination) public onlyOwner {\n        _letsGoAddress = destination;\n        oracle = LetsGoInterface(destination);\n        require(\n            oracle.Validate() == 42,\n            \"Invalid address, destination must be LetsGo contract\"\n        );\n        emit LetsGoChanged(destination);\n    }\n}\n",
  "sourcePath": "/mnt/d/DevelopmentTools/consensys-vezbi/final-project/contracts/GoodTimesContract.sol",
  "compiler": {
    "name": "solc",
    "version": "0.8.10+commit.fc410830.Emscripten.clang"
  },
  "schemaVersion": "3.4.3",
  "updatedAt": "2021-11-30T01:46:52.484Z",
  "networkType": "ethereum",
  "devdoc": {
    "author": "Jane G Nov 2021",
    "kind": "dev",
    "methods": {
      "checkFundsPledgedByUser(uint256)": {
        "params": {
          "_id": "The id of the GoodTime"
        },
        "returns": {
          "result": "value pledged by the user in wei"
        }
      },
      "checkIfUserIsEnrolled(uint256)": {
        "params": {
          "_id": "The id of the GoodTime"
        },
        "returns": {
          "_0": "true if the user is participant of the GoodTime else false"
        }
      },
      "confirmWithdrawal(uint256)": {
        "params": {
          "id": "The id of the GoodTime"
        }
      },
      "constructor": {
        "details": "GoodTimes constructor, sets withdrawThresold.",
        "params": {
          "threshold": "represents withdrawal thershold i.e. how much confirmations will be needed to send funds to LetsGo contract"
        }
      },
      "createGoodTimes(string,uint256)": {
        "params": {
          "duration": "Duration in days",
          "name": "The title of the GoodTime"
        },
        "returns": {
          "_id": "returns the id of the created GoodTime"
        }
      },
      "getUsersGTCs()": {
        "returns": {
          "_0": "array of uints which reprsent ids of GoodTimes"
        }
      },
      "owner()": {
        "details": "Returns the address of the current owner."
      },
      "pledgeFunds(uint256)": {
        "params": {
          "id": "The id of the GoodTime"
        }
      },
      "renounceOwnership()": {
        "details": "Leaves the contract without owner. It will not be possible to call `onlyOwner` functions anymore. Can only be called by the current owner. NOTE: Renouncing ownership will leave the contract without an owner, thereby removing any functionality that is only available to the owner."
      },
      "revokeConfirmation(uint256)": {
        "params": {
          "id": "The id of the GoodTime"
        }
      },
      "sendFundsToBookingContract(uint256)": {
        "params": {
          "id": "The id of the GoodTime"
        }
      },
      "transferOwnership(address)": {
        "details": "Transfers ownership of the contract to a new account (`newOwner`). Can only be called by the current owner."
      },
      "updateLetsGoAddress(address)": {
        "details": "updates the address and the LetsGo contract kept in oracle variable",
        "params": {
          "destination": "address of the new LetsGo contract"
        }
      }
    },
    "stateVariables": {
      "confirmationsByUser": {
        "details": "the uint256 value of the scond mapping represents the funds pledged by the user who has called confirm withdrawal"
      }
    },
    "title": "GoodTimes Contract",
    "version": 1
  },
  "userdoc": {
    "kind": "user",
    "methods": {
      "checkFundsPledgedByUser(uint256)": {
        "notice": "Gets the value of funds the user has pledged to a specific GoodTime"
      },
      "checkIfUserIsEnrolled(uint256)": {
        "notice": "Checks if user has pledged any funds to the specified GoodTime"
      },
      "confirmWithdrawal(uint256)": {
        "notice": "Adds the caller's pledged funds to the confirmation param of the GoodTime."
      },
      "createGoodTimes(string,uint256)": {
        "notice": "Creates a new GoodTime with inital budget of the value send in the transaciton"
      },
      "getUsersGTCs()": {
        "notice": "Gets the ids of all the GoodTimes where the caller is participating"
      },
      "goodTimesRegistry(uint256)": {
        "notice": "registry of created GoodTime objects"
      },
      "pledgeFunds(uint256)": {
        "notice": "Attributes funds to the GoodTime and adds the user as a participant"
      },
      "revokeConfirmation(uint256)": {
        "notice": "Remove the caller's pledged funds from the confirmation param of the GoodTime."
      },
      "sendFundsToBookingContract(uint256)": {
        "notice": "sends the budget of the specified GoodTime to the LetsGo contract. GoodTime needs to have enough confirmations for this to pass"
      },
      "withdrawThreshold()": {
        "notice": "Confirmation threshold as percentage of budget. Can be from 0 - 100."
      }
    },
    "notice": "Contract manages the creation of GoodTimes and interaction with them",
    "version": 1
  }
}